{
  "contractName": "DummyToken",
  "abi": [
    {
      "constant": true,
      "inputs": [],
      "name": "name",
      "outputs": [
        {
          "name": "",
          "type": "string"
        }
      ],
      "payable": false,
      "stateMutability": "view",
      "type": "function"
    },
    {
      "constant": false,
      "inputs": [
        {
          "name": "_spender",
          "type": "address"
        },
        {
          "name": "_value",
          "type": "uint256"
        }
      ],
      "name": "approve",
      "outputs": [
        {
          "name": "",
          "type": "bool"
        }
      ],
      "payable": false,
      "stateMutability": "nonpayable",
      "type": "function"
    },
    {
      "constant": true,
      "inputs": [],
      "name": "totalSupply",
      "outputs": [
        {
          "name": "",
          "type": "uint256"
        }
      ],
      "payable": false,
      "stateMutability": "view",
      "type": "function"
    },
    {
      "constant": false,
      "inputs": [
        {
          "name": "_from",
          "type": "address"
        },
        {
          "name": "_to",
          "type": "address"
        },
        {
          "name": "_value",
          "type": "uint256"
        }
      ],
      "name": "transferFrom",
      "outputs": [
        {
          "name": "",
          "type": "bool"
        }
      ],
      "payable": false,
      "stateMutability": "nonpayable",
      "type": "function"
    },
    {
      "constant": true,
      "inputs": [],
      "name": "decimals",
      "outputs": [
        {
          "name": "",
          "type": "uint256"
        }
      ],
      "payable": false,
      "stateMutability": "view",
      "type": "function"
    },
    {
      "constant": true,
      "inputs": [
        {
          "name": "_owner",
          "type": "address"
        }
      ],
      "name": "balanceOf",
      "outputs": [
        {
          "name": "",
          "type": "uint256"
        }
      ],
      "payable": false,
      "stateMutability": "view",
      "type": "function"
    },
    {
      "constant": true,
      "inputs": [],
      "name": "owner",
      "outputs": [
        {
          "name": "",
          "type": "address"
        }
      ],
      "payable": false,
      "stateMutability": "view",
      "type": "function"
    },
    {
      "constant": true,
      "inputs": [],
      "name": "symbol",
      "outputs": [
        {
          "name": "",
          "type": "string"
        }
      ],
      "payable": false,
      "stateMutability": "view",
      "type": "function"
    },
    {
      "constant": false,
      "inputs": [
        {
          "name": "_value",
          "type": "uint256"
        }
      ],
      "name": "mint",
      "outputs": [],
      "payable": false,
      "stateMutability": "nonpayable",
      "type": "function"
    },
    {
      "constant": false,
      "inputs": [
        {
          "name": "_to",
          "type": "address"
        },
        {
          "name": "_value",
          "type": "uint256"
        }
      ],
      "name": "transfer",
      "outputs": [
        {
          "name": "",
          "type": "bool"
        }
      ],
      "payable": false,
      "stateMutability": "nonpayable",
      "type": "function"
    },
    {
      "constant": true,
      "inputs": [
        {
          "name": "_owner",
          "type": "address"
        },
        {
          "name": "_spender",
          "type": "address"
        }
      ],
      "name": "allowance",
      "outputs": [
        {
          "name": "",
          "type": "uint256"
        }
      ],
      "payable": false,
      "stateMutability": "view",
      "type": "function"
    },
    {
      "constant": false,
      "inputs": [
        {
          "name": "newOwner",
          "type": "address"
        }
      ],
      "name": "transferOwnership",
      "outputs": [],
      "payable": false,
      "stateMutability": "nonpayable",
      "type": "function"
    },
    {
      "inputs": [
        {
          "name": "_name",
          "type": "string"
        },
        {
          "name": "_symbol",
          "type": "string"
        },
        {
          "name": "_decimals",
          "type": "uint256"
        },
        {
          "name": "_totalSupply",
          "type": "uint256"
        }
      ],
      "payable": false,
      "stateMutability": "nonpayable",
      "type": "constructor"
    },
    {
      "anonymous": false,
      "inputs": [
        {
          "indexed": true,
          "name": "_from",
          "type": "address"
        },
        {
          "indexed": true,
          "name": "_to",
          "type": "address"
        },
        {
          "indexed": false,
          "name": "_value",
          "type": "uint256"
        }
      ],
      "name": "Transfer",
      "type": "event"
    },
    {
      "anonymous": false,
      "inputs": [
        {
          "indexed": true,
          "name": "_owner",
          "type": "address"
        },
        {
          "indexed": true,
          "name": "_spender",
          "type": "address"
        },
        {
          "indexed": false,
          "name": "_value",
          "type": "uint256"
        }
      ],
      "name": "Approval",
      "type": "event"
    },
    {
      "constant": false,
      "inputs": [
        {
          "name": "_target",
          "type": "address"
        },
        {
          "name": "_value",
          "type": "uint256"
        }
      ],
      "name": "setBalance",
      "outputs": [],
      "payable": false,
      "stateMutability": "nonpayable",
      "type": "function"
    }
  ],
  "bytecode": "0x60806040523480156200001157600080fd5b506040516200126b3803806200126b8339810180604052810190808051820192919060200180518201929190602001805190602001909291908051906020019092919050505033600360006101000a81548173ffffffffffffffffffffffffffffffffffffffff021916908373ffffffffffffffffffffffffffffffffffffffff1602179055508360049080519060200190620000b092919062000125565b508260059080519060200190620000c992919062000125565b508160068190555080600281905550806000803373ffffffffffffffffffffffffffffffffffffffff1673ffffffffffffffffffffffffffffffffffffffff1681526020019081526020016000208190555050505050620001d4565b828054600181600116156101000203166002900490600052602060002090601f016020900481019282601f106200016857805160ff191683800117855562000199565b8280016001018555821562000199579182015b82811115620001985782518255916020019190600101906200017b565b5b509050620001a89190620001ac565b5090565b620001d191905b80821115620001cd576000816000905550600101620001b3565b5090565b90565b61108780620001e46000396000f3006080604052600436106100c5576000357c0100000000000000000000000000000000000000000000000000000000900463ffffffff16806306fdde03146100ca578063095ea7b31461015a57806318160ddd146101bf57806323b872dd146101ea578063313ce5671461026f57806370a082311461029a5780638da5cb5b146102f157806395d89b4114610348578063a0712d68146103d8578063a9059cbb14610405578063dd62ed3e1461046a578063e30443bc146104e1578063f2fde38b1461052e575b600080fd5b3480156100d657600080fd5b506100df610571565b6040518080602001828103825283818151815260200191508051906020019080838360005b8381101561011f578082015181840152602081019050610104565b50505050905090810190601f16801561014c5780820380516001836020036101000a031916815260200191505b509250505060405180910390f35b34801561016657600080fd5b506101a5600480360381019080803573ffffffffffffffffffffffffffffffffffffffff1690602001909291908035906020019092919050505061060f565b604051808215151515815260200191505060405180910390f35b3480156101cb57600080fd5b506101d4610701565b6040518082815260200191505060405180910390f35b3480156101f657600080fd5b50610255600480360381019080803573ffffffffffffffffffffffffffffffffffffffff169060200190929190803573ffffffffffffffffffffffffffffffffffffffff16906020019092919080359060200190929190505050610707565b604051808215151515815260200191505060405180910390f35b34801561027b57600080fd5b50610284610a28565b6040518082815260200191505060405180910390f35b3480156102a657600080fd5b506102db600480360381019080803573ffffffffffffffffffffffffffffffffffffffff169060200190929190505050610a2e565b6040518082815260200191505060405180910390f35b3480156102fd57600080fd5b50610306610a76565b604051808273ffffffffffffffffffffffffffffffffffffffff1673ffffffffffffffffffffffffffffffffffffffff16815260200191505060405180910390f35b34801561035457600080fd5b5061035d610a9c565b6040518080602001828103825283818151815260200191508051906020019080838360005b8381101561039d578082015181840152602081019050610382565b50505050905090810190601f1680156103ca5780820380516001836020036101000a031916815260200191505b509250505060405180910390f35b3480156103e457600080fd5b5061040360048036038101908080359060200190929190505050610b3a565b005b34801561041157600080fd5b50610450600480360381019080803573ffffffffffffffffffffffffffffffffffffffff16906020019092919080359060200190929190505050610bf1565b604051808215151515815260200191505060405180910390f35b34801561047657600080fd5b506104cb600480360381019080803573ffffffffffffffffffffffffffffffffffffffff169060200190929190803573ffffffffffffffffffffffffffffffffffffffff169060200190929190505050610dd1565b6040518082815260200191505060405180910390f35b3480156104ed57600080fd5b5061052c600480360381019080803573ffffffffffffffffffffffffffffffffffffffff16906020019092919080359060200190929190505050610e58565b005b34801561053a57600080fd5b5061056f600480360381019080803573ffffffffffffffffffffffffffffffffffffffff169060200190929190505050610f4d565b005b60048054600181600116156101000203166002900480601f0160208091040260200160405190810160405280929190818152602001828054600181600116156101000203166002900480156106075780601f106105dc57610100808354040283529160200191610607565b820191906000526020600020905b8154815290600101906020018083116105ea57829003601f168201915b505050505081565b600081600160003373ffffffffffffffffffffffffffffffffffffffff1673ffffffffffffffffffffffffffffffffffffffff16815260200190815260200160002060008573ffffffffffffffffffffffffffffffffffffffff1673ffffffffffffffffffffffffffffffffffffffff168152602001908152602001600020819055508273ffffffffffffffffffffffffffffffffffffffff163373ffffffffffffffffffffffffffffffffffffffff167f8c5be1e5ebec7d5bd14f71427d1e84f3dd0314c0f7b2291e5b200ac8c7c3b925846040518082815260200191505060405180910390a36001905092915050565b60025481565b600080600160008673ffffffffffffffffffffffffffffffffffffffff1673ffffffffffffffffffffffffffffffffffffffff16815260200190815260200160002060003373ffffffffffffffffffffffffffffffffffffffff1673ffffffffffffffffffffffffffffffffffffffff168152602001908152602001600020549050826000808773ffffffffffffffffffffffffffffffffffffffff1673ffffffffffffffffffffffffffffffffffffffff16815260200190815260200160002054101580156107d75750828110155b801561086157506000808573ffffffffffffffffffffffffffffffffffffffff1673ffffffffffffffffffffffffffffffffffffffff16815260200190815260200160002054836000808773ffffffffffffffffffffffffffffffffffffffff1673ffffffffffffffffffffffffffffffffffffffff168152602001908152602001600020540110155b151561086c57600080fd5b826000808673ffffffffffffffffffffffffffffffffffffffff1673ffffffffffffffffffffffffffffffffffffffff16815260200190815260200160002060008282540192505081905550826000808773ffffffffffffffffffffffffffffffffffffffff1673ffffffffffffffffffffffffffffffffffffffff168152602001908152602001600020600082825403925050819055507fffffffffffffffffffffffffffffffffffffffffffffffffffffffffffffffff8110156109b75782600160008773ffffffffffffffffffffffffffffffffffffffff1673ffffffffffffffffffffffffffffffffffffffff16815260200190815260200160002060003373ffffffffffffffffffffffffffffffffffffffff1673ffffffffffffffffffffffffffffffffffffffff168152602001908152602001600020600082825403925050819055505b8373ffffffffffffffffffffffffffffffffffffffff168573ffffffffffffffffffffffffffffffffffffffff167fddf252ad1be2c89b69c2b068fc378daa952ba7f163c4a11628f55a4df523b3ef856040518082815260200191505060405180910390a360019150509392505050565b60065481565b60008060008373ffffffffffffffffffffffffffffffffffffffff1673ffffffffffffffffffffffffffffffffffffffff168152602001908152602001600020549050919050565b600360009054906101000a900473ffffffffffffffffffffffffffffffffffffffff1681565b60058054600181600116156101000203166002900480601f016020809104026020016040519081016040528092919081815260200182805460018160011615610100020316600290048015610b325780601f10610b0757610100808354040283529160200191610b32565b820191906000526020600020905b815481529060010190602001808311610b1557829003601f168201915b505050505081565b68056bc75e2d631000008111151515610b5257600080fd5b610b9a816000803373ffffffffffffffffffffffffffffffffffffffff1673ffffffffffffffffffffffffffffffffffffffff16815260200190815260200160002054611024565b6000803373ffffffffffffffffffffffffffffffffffffffff1673ffffffffffffffffffffffffffffffffffffffff16815260200190815260200160002081905550610be860025482611024565b60028190555050565b6000816000803373ffffffffffffffffffffffffffffffffffffffff1673ffffffffffffffffffffffffffffffffffffffff1681526020019081526020016000205410158015610cbf57506000808473ffffffffffffffffffffffffffffffffffffffff1673ffffffffffffffffffffffffffffffffffffffff16815260200190815260200160002054826000808673ffffffffffffffffffffffffffffffffffffffff1673ffffffffffffffffffffffffffffffffffffffff168152602001908152602001600020540110155b1515610cca57600080fd5b816000803373ffffffffffffffffffffffffffffffffffffffff1673ffffffffffffffffffffffffffffffffffffffff16815260200190815260200160002060008282540392505081905550816000808573ffffffffffffffffffffffffffffffffffffffff1673ffffffffffffffffffffffffffffffffffffffff168152602001908152602001600020600082825401925050819055508273ffffffffffffffffffffffffffffffffffffffff163373ffffffffffffffffffffffffffffffffffffffff167fddf252ad1be2c89b69c2b068fc378daa952ba7f163c4a11628f55a4df523b3ef846040518082815260200191505060405180910390a36001905092915050565b6000600160008473ffffffffffffffffffffffffffffffffffffffff1673ffffffffffffffffffffffffffffffffffffffff16815260200190815260200160002060008373ffffffffffffffffffffffffffffffffffffffff1673ffffffffffffffffffffffffffffffffffffffff16815260200190815260200160002054905092915050565b6000600360009054906101000a900473ffffffffffffffffffffffffffffffffffffffff1673ffffffffffffffffffffffffffffffffffffffff163373ffffffffffffffffffffffffffffffffffffffff16141515610eb657600080fd5b610ebf83610a2e565b905080821015610ee957610ede600254610ed98385611042565b611042565b600281905550610f05565b610efe600254610ef98484611042565b611024565b6002819055505b816000808573ffffffffffffffffffffffffffffffffffffffff1673ffffffffffffffffffffffffffffffffffffffff16815260200190815260200160002081905550505050565b600360009054906101000a900473ffffffffffffffffffffffffffffffffffffffff1673ffffffffffffffffffffffffffffffffffffffff163373ffffffffffffffffffffffffffffffffffffffff16141515610fa957600080fd5b600073ffffffffffffffffffffffffffffffffffffffff168173ffffffffffffffffffffffffffffffffffffffff161415156110215780600360006101000a81548173ffffffffffffffffffffffffffffffffffffffff021916908373ffffffffffffffffffffffffffffffffffffffff1602179055505b50565b600080828401905083811015151561103857fe5b8091505092915050565b600082821115151561105057fe5b8183039050929150505600a165627a7a72305820205e979b216dc0ffcc3ea0471a32dc2c414967b18ec7e8b42ec0109489693c590029",
  "source": "pragma solidity ^0.4.24;\n\nimport { Mintable } from \"../Mintable/Mintable.sol\";\nimport { Ownable } from \"../../utils/Ownable/Ownable.sol\";\n\ncontract DummyToken is Mintable, Ownable {\n    string public name;\n    string public symbol;\n    uint public decimals;\n\n    function DummyToken(\n        string _name,\n        string _symbol,\n        uint _decimals,\n        uint _totalSupply)\n        public\n    {\n        name = _name;\n        symbol = _symbol;\n        decimals = _decimals;\n        totalSupply = _totalSupply;\n        balances[msg.sender] = _totalSupply;\n    }\n\n    function setBalance(address _target, uint _value)\n        public\n        onlyOwner\n    {\n        uint currBalance = balanceOf(_target);\n        if (_value < currBalance) {\n            totalSupply = safeSub(totalSupply, safeSub(currBalance, _value));\n        } else {\n            totalSupply = safeAdd(totalSupply, safeSub(_value, currBalance));\n        }\n        balances[_target] = _value;\n    }\n}\n",
  "sourcePath": "/Users/h/git/efx/efx-api-node-with-contracts/contracts/Exchange/test/DummyToken/DummyToken.sol",
  "compiler": {
    "name": "solc",
    "version": "0.4.24+commit.e67f0147.Emscripten.clang"
  },
  "schemaVersion": "3.0.2",
  "updatedAt": "2019-02-27T19:40:01.915Z",
  "devdoc": {
    "methods": {
      "transferFrom(address,address,uint256)": {
        "details": "ERC20 transferFrom, modified such that an allowance of MAX_UINT represents an unlimited allowance. See https://github.com/ethereum/EIPs/issues/717",
        "params": {
          "_from": "Address to transfer from.",
          "_to": "Address to transfer to.",
          "_value": "Amount to transfer."
        },
        "return": "Success of transfer."
      }
    }
  },
  "userdoc": {
    "methods": {}
  }
}