{
  "contractName": "TokenTransferProxy",
  "abi": [
    {
      "constant": true,
      "inputs": [],
      "name": "exchangeAddress",
      "outputs": [
        {
          "name": "",
          "type": "address"
        }
      ],
      "payable": false,
      "stateMutability": "view",
      "type": "function"
    },
    {
      "inputs": [],
      "payable": false,
      "stateMutability": "nonpayable",
      "type": "constructor"
    },
    {
      "anonymous": false,
      "inputs": [
        {
          "indexed": true,
          "name": "target",
          "type": "address"
        },
        {
          "indexed": true,
          "name": "caller",
          "type": "address"
        }
      ],
      "name": "LogAuthorizedAddressAdded",
      "type": "event"
    },
    {
      "constant": false,
      "inputs": [
        {
          "name": "token",
          "type": "address"
        },
        {
          "name": "from",
          "type": "address"
        },
        {
          "name": "to",
          "type": "address"
        },
        {
          "name": "value",
          "type": "uint256"
        }
      ],
      "name": "transferFrom",
      "outputs": [
        {
          "name": "",
          "type": "bool"
        }
      ],
      "payable": false,
      "stateMutability": "nonpayable",
      "type": "function"
    }
  ],
  "bytecode": "0x608060405234801561001057600080fd5b506100293361002e640100000000026401000000009004565b6100cd565b600073ffffffffffffffffffffffffffffffffffffffff166000809054906101000a900473ffffffffffffffffffffffffffffffffffffffff1673ffffffffffffffffffffffffffffffffffffffff1614151561008a57600080fd5b806000806101000a81548173ffffffffffffffffffffffffffffffffffffffff021916908373ffffffffffffffffffffffffffffffffffffffff16021790555050565b610317806100dc6000396000f30060806040526004361061004c576000357c0100000000000000000000000000000000000000000000000000000000900463ffffffff16806315dacbea146100515780639cd01605146100f6575b600080fd5b34801561005d57600080fd5b506100dc600480360381019080803573ffffffffffffffffffffffffffffffffffffffff169060200190929190803573ffffffffffffffffffffffffffffffffffffffff169060200190929190803573ffffffffffffffffffffffffffffffffffffffff1690602001909291908035906020019092919050505061014d565b604051808215151515815260200191505060405180910390f35b34801561010257600080fd5b5061010b6102c6565b604051808273ffffffffffffffffffffffffffffffffffffffff1673ffffffffffffffffffffffffffffffffffffffff16815260200191505060405180910390f35b60008060009054906101000a900473ffffffffffffffffffffffffffffffffffffffff1673ffffffffffffffffffffffffffffffffffffffff163373ffffffffffffffffffffffffffffffffffffffff161415156101aa57600080fd5b8473ffffffffffffffffffffffffffffffffffffffff166323b872dd8585856040518463ffffffff167c0100000000000000000000000000000000000000000000000000000000028152600401808473ffffffffffffffffffffffffffffffffffffffff1673ffffffffffffffffffffffffffffffffffffffff1681526020018373ffffffffffffffffffffffffffffffffffffffff1673ffffffffffffffffffffffffffffffffffffffff1681526020018281526020019350505050602060405180830381600087803b15801561028157600080fd5b505af1158015610295573d6000803e3d6000fd5b505050506040513d60208110156102ab57600080fd5b81019080805190602001909291905050509050949350505050565b6000809054906101000a900473ffffffffffffffffffffffffffffffffffffffff16815600a165627a7a7230582046369c6791c04952471a6efb0bc30db4d9f0d24056aeea5829e65c9c96d8f4010029",
  "source": "pragma solidity 0.4.24;\n\nimport { Token } from \"../../tokens/Token/Token.sol\";\n\n/*\n\n  Copyright Ethfinex Inc 2018\n\n  Licensed under the Apache License, Version 2.0\n  http://www.apache.org/licenses/LICENSE-2.0\n\n*/\n\n//solhint-disable-next-line\n/// @title TokenTransferProxy - Transfers tokens on behalf of exchange\n/// @author Ahmed Ali <Ahmed@bitfinex.com>\ncontract TokenTransferProxy {\n\n    modifier onlyExchange {\n        require(msg.sender == exchangeAddress);\n        _;\n    }\n\n    address public exchangeAddress;\n\n\n    event LogAuthorizedAddressAdded(address indexed target, address indexed caller);\n\n    function TokenTransferProxy() public {\n        setExchange(msg.sender);\n    }\n    /*\n     * Public functions\n     */\n\n    /// @dev Calls into ERC20 Token contract, invoking transferFrom.\n    /// @param token Address of token to transfer.\n    /// @param from Address to transfer token from.\n    /// @param to Address to transfer token to.\n    /// @param value Amount of token to transfer.\n    /// @return Success of transfer.\n    function transferFrom(\n        address token,\n        address from,\n        address to,\n        uint value)\n        public\n        onlyExchange\n        returns (bool)\n    {\n        return Token(token).transferFrom(from, to, value);\n    }\n\n    /// @dev Used to set exchange address\n    /// @param _exchange the address of the exchange\n    function setExchange(address _exchange) internal {\n        require(exchangeAddress == address(0));\n        exchangeAddress = _exchange;\n    }\n}\n",
  "sourcePath": "/Users/h/git/efx/efx-api-node-with-contracts/contracts/Exchange/protocol/TokenTransferProxy/TokenTransferProxy.sol",
  "compiler": {
    "name": "solc",
    "version": "0.4.24+commit.e67f0147.Emscripten.clang"
  },
  "schemaVersion": "3.0.2",
  "updatedAt": "2019-02-27T17:06:09.753Z",
  "devdoc": {
    "author": "Ahmed Ali <Ahmed@bitfinex.com>",
    "methods": {
      "transferFrom(address,address,address,uint256)": {
        "details": "Calls into ERC20 Token contract, invoking transferFrom.",
        "params": {
          "from": "Address to transfer token from.",
          "to": "Address to transfer token to.",
          "token": "Address of token to transfer.",
          "value": "Amount of token to transfer."
        },
        "return": "Success of transfer."
      }
    },
    "title": "TokenTransferProxy - Transfers tokens on behalf of exchange"
  },
  "userdoc": {
    "methods": {}
  }
}