{
  "contractName": "WrapperLock",
  "abi": [
    {
      "constant": true,
      "inputs": [],
      "name": "name",
      "outputs": [
        {
          "name": "",
          "type": "string"
        }
      ],
      "payable": false,
      "stateMutability": "view",
      "type": "function"
    },
    {
      "constant": true,
      "inputs": [],
      "name": "originalToken",
      "outputs": [
        {
          "name": "",
          "type": "address"
        }
      ],
      "payable": false,
      "stateMutability": "view",
      "type": "function"
    },
    {
      "constant": true,
      "inputs": [],
      "name": "totalSupply",
      "outputs": [
        {
          "name": "",
          "type": "uint256"
        }
      ],
      "payable": false,
      "stateMutability": "view",
      "type": "function"
    },
    {
      "constant": true,
      "inputs": [
        {
          "name": "",
          "type": "address"
        }
      ],
      "name": "balances",
      "outputs": [
        {
          "name": "",
          "type": "uint256"
        }
      ],
      "payable": false,
      "stateMutability": "view",
      "type": "function"
    },
    {
      "constant": true,
      "inputs": [],
      "name": "decimals",
      "outputs": [
        {
          "name": "",
          "type": "uint256"
        }
      ],
      "payable": false,
      "stateMutability": "view",
      "type": "function"
    },
    {
      "constant": true,
      "inputs": [],
      "name": "TRANSFER_PROXY_VEFX",
      "outputs": [
        {
          "name": "",
          "type": "address"
        }
      ],
      "payable": false,
      "stateMutability": "view",
      "type": "function"
    },
    {
      "constant": true,
      "inputs": [
        {
          "name": "",
          "type": "address"
        }
      ],
      "name": "isSigner",
      "outputs": [
        {
          "name": "",
          "type": "bool"
        }
      ],
      "payable": false,
      "stateMutability": "view",
      "type": "function"
    },
    {
      "constant": true,
      "inputs": [],
      "name": "owner",
      "outputs": [
        {
          "name": "",
          "type": "address"
        }
      ],
      "payable": false,
      "stateMutability": "view",
      "type": "function"
    },
    {
      "constant": true,
      "inputs": [],
      "name": "symbol",
      "outputs": [
        {
          "name": "",
          "type": "string"
        }
      ],
      "payable": false,
      "stateMutability": "view",
      "type": "function"
    },
    {
      "constant": true,
      "inputs": [],
      "name": "erc20old",
      "outputs": [
        {
          "name": "",
          "type": "bool"
        }
      ],
      "payable": false,
      "stateMutability": "view",
      "type": "function"
    },
    {
      "constant": true,
      "inputs": [],
      "name": "TRANSFER_PROXY_V2",
      "outputs": [
        {
          "name": "",
          "type": "address"
        }
      ],
      "payable": false,
      "stateMutability": "view",
      "type": "function"
    },
    {
      "constant": true,
      "inputs": [
        {
          "name": "",
          "type": "address"
        }
      ],
      "name": "depositLock",
      "outputs": [
        {
          "name": "",
          "type": "uint256"
        }
      ],
      "payable": false,
      "stateMutability": "view",
      "type": "function"
    },
    {
      "constant": false,
      "inputs": [
        {
          "name": "newOwner",
          "type": "address"
        }
      ],
      "name": "transferOwnership",
      "outputs": [],
      "payable": false,
      "stateMutability": "nonpayable",
      "type": "function"
    },
    {
      "inputs": [
        {
          "name": "_originalToken",
          "type": "address"
        },
        {
          "name": "_name",
          "type": "string"
        },
        {
          "name": "_symbol",
          "type": "string"
        },
        {
          "name": "_decimals",
          "type": "uint256"
        },
        {
          "name": "_proxyAddress",
          "type": "address"
        },
        {
          "name": "_erc20old",
          "type": "bool"
        }
      ],
      "payable": false,
      "stateMutability": "nonpayable",
      "type": "constructor"
    },
    {
      "anonymous": false,
      "inputs": [
        {
          "indexed": true,
          "name": "previousOwner",
          "type": "address"
        },
        {
          "indexed": true,
          "name": "newOwner",
          "type": "address"
        }
      ],
      "name": "OwnershipTransferred",
      "type": "event"
    },
    {
      "anonymous": false,
      "inputs": [
        {
          "indexed": true,
          "name": "from",
          "type": "address"
        },
        {
          "indexed": true,
          "name": "to",
          "type": "address"
        },
        {
          "indexed": false,
          "name": "value",
          "type": "uint256"
        }
      ],
      "name": "Transfer",
      "type": "event"
    },
    {
      "constant": false,
      "inputs": [
        {
          "name": "_value",
          "type": "uint256"
        },
        {
          "name": "_forTime",
          "type": "uint256"
        }
      ],
      "name": "deposit",
      "outputs": [
        {
          "name": "success",
          "type": "bool"
        }
      ],
      "payable": false,
      "stateMutability": "nonpayable",
      "type": "function"
    },
    {
      "constant": false,
      "inputs": [
        {
          "name": "_value",
          "type": "uint256"
        },
        {
          "name": "v",
          "type": "uint8"
        },
        {
          "name": "r",
          "type": "bytes32"
        },
        {
          "name": "s",
          "type": "bytes32"
        },
        {
          "name": "signatureValidUntilBlock",
          "type": "uint256"
        }
      ],
      "name": "withdraw",
      "outputs": [
        {
          "name": "success",
          "type": "bool"
        }
      ],
      "payable": false,
      "stateMutability": "nonpayable",
      "type": "function"
    },
    {
      "constant": false,
      "inputs": [],
      "name": "withdrawBalanceDifference",
      "outputs": [
        {
          "name": "success",
          "type": "bool"
        }
      ],
      "payable": false,
      "stateMutability": "nonpayable",
      "type": "function"
    },
    {
      "constant": false,
      "inputs": [
        {
          "name": "_differentToken",
          "type": "address"
        },
        {
          "name": "_erc20old",
          "type": "bool"
        }
      ],
      "name": "withdrawDifferentToken",
      "outputs": [
        {
          "name": "",
          "type": "bool"
        }
      ],
      "payable": false,
      "stateMutability": "nonpayable",
      "type": "function"
    },
    {
      "constant": false,
      "inputs": [
        {
          "name": "_to",
          "type": "address"
        },
        {
          "name": "_value",
          "type": "uint256"
        }
      ],
      "name": "transfer",
      "outputs": [
        {
          "name": "",
          "type": "bool"
        }
      ],
      "payable": false,
      "stateMutability": "nonpayable",
      "type": "function"
    },
    {
      "constant": false,
      "inputs": [
        {
          "name": "_from",
          "type": "address"
        },
        {
          "name": "_to",
          "type": "address"
        },
        {
          "name": "_value",
          "type": "uint256"
        }
      ],
      "name": "transferFrom",
      "outputs": [],
      "payable": false,
      "stateMutability": "nonpayable",
      "type": "function"
    },
    {
      "constant": true,
      "inputs": [
        {
          "name": "_owner",
          "type": "address"
        },
        {
          "name": "_spender",
          "type": "address"
        }
      ],
      "name": "allowance",
      "outputs": [
        {
          "name": "",
          "type": "uint256"
        }
      ],
      "payable": false,
      "stateMutability": "view",
      "type": "function"
    },
    {
      "constant": true,
      "inputs": [
        {
          "name": "_owner",
          "type": "address"
        }
      ],
      "name": "balanceOf",
      "outputs": [
        {
          "name": "",
          "type": "uint256"
        }
      ],
      "payable": false,
      "stateMutability": "view",
      "type": "function"
    },
    {
      "constant": true,
      "inputs": [
        {
          "name": "hash",
          "type": "bytes32"
        },
        {
          "name": "v",
          "type": "uint8"
        },
        {
          "name": "r",
          "type": "bytes32"
        },
        {
          "name": "s",
          "type": "bytes32"
        }
      ],
      "name": "isValidSignature",
      "outputs": [
        {
          "name": "",
          "type": "bool"
        }
      ],
      "payable": false,
      "stateMutability": "view",
      "type": "function"
    },
    {
      "constant": false,
      "inputs": [
        {
          "name": "_newSigner",
          "type": "address"
        }
      ],
      "name": "addSigner",
      "outputs": [],
      "payable": false,
      "stateMutability": "nonpayable",
      "type": "function"
    },
    {
      "constant": true,
      "inputs": [
        {
          "name": "_sender",
          "type": "address"
        },
        {
          "name": "_wrapper",
          "type": "address"
        },
        {
          "name": "_validTill",
          "type": "uint256"
        }
      ],
      "name": "keccak",
      "outputs": [
        {
          "name": "",
          "type": "bytes32"
        }
      ],
      "payable": false,
      "stateMutability": "view",
      "type": "function"
    }
  ],
  "bytecode": "0x608060405273dcdb42c9a256690bd153a7b409751adfc8dd5851600360006101000a81548173ffffffffffffffffffffffffffffffffffffffff021916908373ffffffffffffffffffffffffffffffffffffffff160217905550732240dab907db71e64d3e0dba4800c83b5c502d4e600460006101000a81548173ffffffffffffffffffffffffffffffffffffffff021916908373ffffffffffffffffffffffffffffffffffffffff160217905550348015620000bb57600080fd5b5060405162002b2238038062002b2283398101806040528101908080519060200190929190805182019291906020018051820192919060200180519060200190929190805190602001909291908051906020019092919050505033600260006101000a81548173ffffffffffffffffffffffffffffffffffffffff021916908373ffffffffffffffffffffffffffffffffffffffff16021790555085600a60006101000a81548173ffffffffffffffffffffffffffffffffffffffff021916908373ffffffffffffffffffffffffffffffffffffffff1602179055508460079080519060200190620001af9291906200028f565b508360089080519060200190620001c89291906200028f565b50826009819055506001600560003373ffffffffffffffffffffffffffffffffffffffff1673ffffffffffffffffffffffffffffffffffffffff16815260200190815260200160002060006101000a81548160ff02191690831515021790555080600660006101000a81548160ff02191690831515021790555081600460006101000a81548173ffffffffffffffffffffffffffffffffffffffff021916908373ffffffffffffffffffffffffffffffffffffffff1602179055505050505050506200033e565b828054600181600116156101000203166002900490600052602060002090601f016020900481019282601f10620002d257805160ff191683800117855562000303565b8280016001018555821562000303579182015b8281111562000302578251825591602001919060010190620002e5565b5b50905062000312919062000316565b5090565b6200033b91905b80821115620003375760008160009055506001016200031d565b5090565b90565b6127d4806200034e6000396000f30060806040526004361061013e576000357c0100000000000000000000000000000000000000000000000000000000900463ffffffff16806306fdde03146101435780630b82d33d146101d35780630e7c1cb51461020257806318160ddd146102595780631d6f757d1461028457806323b872dd146102fc57806327e235e314610369578063313ce567146103c057806345164b3e146103eb57806370a082311461044257806374f1d6ce146104995780637df73e27146105225780638b257d3d1461057d5780638da5cb5b146105ef57806395d89b41146106465780639de66604146106d6578063a9059cbb14610705578063ad93640f1461076a578063cc891023146107c1578063d9ee369a14610818578063dd62ed3e1461087f578063e2bbb158146108f6578063eb12d61e14610945578063f2fde38b14610988575b600080fd5b34801561014f57600080fd5b506101586109cb565b6040518080602001828103825283818151815260200191508051906020019080838360005b8381101561019857808201518184015260208101905061017d565b50505050905090810190601f1680156101c55780820380516001836020036101000a031916815260200191505b509250505060405180910390f35b3480156101df57600080fd5b506101e8610a69565b604051808215151515815260200191505060405180910390f35b34801561020e57600080fd5b50610217611001565b604051808273ffffffffffffffffffffffffffffffffffffffff1673ffffffffffffffffffffffffffffffffffffffff16815260200191505060405180910390f35b34801561026557600080fd5b5061026e611027565b6040518082815260200191505060405180910390f35b34801561029057600080fd5b506102e260048036038101908080359060200190929190803560ff1690602001909291908035600019169060200190929190803560001916906020019092919080359060200190929190505050611031565b604051808215151515815260200191505060405180910390f35b34801561030857600080fd5b50610367600480360381019080803573ffffffffffffffffffffffffffffffffffffffff169060200190929190803573ffffffffffffffffffffffffffffffffffffffff16906020019092919080359060200190929190505050611458565b005b34801561037557600080fd5b506103aa600480360381019080803573ffffffffffffffffffffffffffffffffffffffff16906020019092919050505061181d565b6040518082815260200191505060405180910390f35b3480156103cc57600080fd5b506103d5611835565b6040518082815260200191505060405180910390f35b3480156103f757600080fd5b5061040061183b565b604051808273ffffffffffffffffffffffffffffffffffffffff1673ffffffffffffffffffffffffffffffffffffffff16815260200191505060405180910390f35b34801561044e57600080fd5b50610483600480360381019080803573ffffffffffffffffffffffffffffffffffffffff169060200190929190505050611861565b6040518082815260200191505060405180910390f35b3480156104a557600080fd5b50610504600480360381019080803573ffffffffffffffffffffffffffffffffffffffff169060200190929190803573ffffffffffffffffffffffffffffffffffffffff169060200190929190803590602001909291905050506118aa565b60405180826000191660001916815260200191505060405180910390f35b34801561052e57600080fd5b50610563600480360381019080803573ffffffffffffffffffffffffffffffffffffffff169060200190929190505050611951565b604051808215151515815260200191505060405180910390f35b34801561058957600080fd5b506105d56004803603810190808035600019169060200190929190803560ff16906020019092919080356000191690602001909291908035600019169060200190929190505050611971565b604051808215151515815260200191505060405180910390f35b3480156105fb57600080fd5b50610604611a8f565b604051808273ffffffffffffffffffffffffffffffffffffffff1673ffffffffffffffffffffffffffffffffffffffff16815260200191505060405180910390f35b34801561065257600080fd5b5061065b611ab5565b6040518080602001828103825283818151815260200191508051906020019080838360005b8381101561069b578082015181840152602081019050610680565b50505050905090810190601f1680156106c85780820380516001836020036101000a031916815260200191505b509250505060405180910390f35b3480156106e257600080fd5b506106eb611b53565b604051808215151515815260200191505060405180910390f35b34801561071157600080fd5b50610750600480360381019080803573ffffffffffffffffffffffffffffffffffffffff16906020019092919080359060200190929190505050611b66565b604051808215151515815260200191505060405180910390f35b34801561077657600080fd5b5061077f611b71565b604051808273ffffffffffffffffffffffffffffffffffffffff1673ffffffffffffffffffffffffffffffffffffffff16815260200191505060405180910390f35b3480156107cd57600080fd5b50610802600480360381019080803573ffffffffffffffffffffffffffffffffffffffff169060200190929190505050611b97565b6040518082815260200191505060405180910390f35b34801561082457600080fd5b50610865600480360381019080803573ffffffffffffffffffffffffffffffffffffffff169060200190929190803515159060200190929190505050611baf565b604051808215151515815260200191505060405180910390f35b34801561088b57600080fd5b506108e0600480360381019080803573ffffffffffffffffffffffffffffffffffffffff169060200190929190803573ffffffffffffffffffffffffffffffffffffffff1690602001909291905050506120b2565b6040518082815260200191505060405180910390f35b34801561090257600080fd5b5061092b6004803603810190808035906020019092919080359060200190929190505050612191565b604051808215151515815260200191505060405180910390f35b34801561095157600080fd5b50610986600480360381019080803573ffffffffffffffffffffffffffffffffffffffff169060200190929190505050612566565b005b34801561099457600080fd5b506109c9600480360381019080803573ffffffffffffffffffffffffffffffffffffffff169060200190929190505050612619565b005b60078054600181600116156101000203166002900480601f016020809104026020016040519081016040528092919081815260200182805460018160011615610100020316600290048015610a615780601f10610a3657610100808354040283529160200191610a61565b820191906000526020600020905b815481529060010190602001808311610a4457829003601f168201915b505050505081565b6000600260009054906101000a900473ffffffffffffffffffffffffffffffffffffffff1673ffffffffffffffffffffffffffffffffffffffff163373ffffffffffffffffffffffffffffffffffffffff16141515610ac757600080fd5b6000610bd5600154600a60009054906101000a900473ffffffffffffffffffffffffffffffffffffffff1673ffffffffffffffffffffffffffffffffffffffff166370a08231306040518263ffffffff167c0100000000000000000000000000000000000000000000000000000000028152600401808273ffffffffffffffffffffffffffffffffffffffff1673ffffffffffffffffffffffffffffffffffffffff168152602001915050602060405180830381600087803b158015610b8c57600080fd5b505af1158015610ba0573d6000803e3d6000fd5b505050506040513d6020811015610bb657600080fd5b810190808051906020019092919050505061277190919063ffffffff16565b111515610be157600080fd5b600660009054906101000a900460ff1615610de357600a60009054906101000a900473ffffffffffffffffffffffffffffffffffffffff1673ffffffffffffffffffffffffffffffffffffffff1663a9059cbb33610d41600154600a60009054906101000a900473ffffffffffffffffffffffffffffffffffffffff1673ffffffffffffffffffffffffffffffffffffffff166370a08231306040518263ffffffff167c0100000000000000000000000000000000000000000000000000000000028152600401808273ffffffffffffffffffffffffffffffffffffffff1673ffffffffffffffffffffffffffffffffffffffff168152602001915050602060405180830381600087803b158015610cf857600080fd5b505af1158015610d0c573d6000803e3d6000fd5b505050506040513d6020811015610d2257600080fd5b810190808051906020019092919050505061277190919063ffffffff16565b6040518363ffffffff167c0100000000000000000000000000000000000000000000000000000000028152600401808373ffffffffffffffffffffffffffffffffffffffff1673ffffffffffffffffffffffffffffffffffffffff16815260200182815260200192505050600060405180830381600087803b158015610dc657600080fd5b505af1158015610dda573d6000803e3d6000fd5b50505050610ffa565b600a60009054906101000a900473ffffffffffffffffffffffffffffffffffffffff1673ffffffffffffffffffffffffffffffffffffffff1663a9059cbb33610f2e600154600a60009054906101000a900473ffffffffffffffffffffffffffffffffffffffff1673ffffffffffffffffffffffffffffffffffffffff166370a08231306040518263ffffffff167c0100000000000000000000000000000000000000000000000000000000028152600401808273ffffffffffffffffffffffffffffffffffffffff1673ffffffffffffffffffffffffffffffffffffffff168152602001915050602060405180830381600087803b158015610ee557600080fd5b505af1158015610ef9573d6000803e3d6000fd5b505050506040513d6020811015610f0f57600080fd5b810190808051906020019092919050505061277190919063ffffffff16565b6040518363ffffffff167c0100000000000000000000000000000000000000000000000000000000028152600401808373ffffffffffffffffffffffffffffffffffffffff1673ffffffffffffffffffffffffffffffffffffffff16815260200182815260200192505050602060405180830381600087803b158015610fb357600080fd5b505af1158015610fc7573d6000803e3d6000fd5b505050506040513d6020811015610fdd57600080fd5b81019080805190602001909291905050501515610ff957600080fd5b5b6001905090565b600a60009054906101000a900473ffffffffffffffffffffffffffffffffffffffff1681565b6000600154905090565b60008561103d33611861565b1015151561104a57600080fd5b600b60003373ffffffffffffffffffffffffffffffffffffffff1673ffffffffffffffffffffffffffffffffffffffff16815260200190815260200160002054421115156111535781431015156110a057600080fd5b611147333084604051808473ffffffffffffffffffffffffffffffffffffffff1673ffffffffffffffffffffffffffffffffffffffff166c010000000000000000000000000281526014018373ffffffffffffffffffffffffffffffffffffffff1673ffffffffffffffffffffffffffffffffffffffff166c0100000000000000000000000002815260140182815260200193505050506040518091039020868686611971565b151561115257600080fd5b5b6111a586600c60003373ffffffffffffffffffffffffffffffffffffffff1673ffffffffffffffffffffffffffffffffffffffff1681526020019081526020016000205461277190919063ffffffff16565b600c60003373ffffffffffffffffffffffffffffffffffffffff1673ffffffffffffffffffffffffffffffffffffffff168152602001908152602001600020819055506111fd8660015461277190919063ffffffff16565b6001819055506000600b60003373ffffffffffffffffffffffffffffffffffffffff1673ffffffffffffffffffffffffffffffffffffffff16815260200190815260200160002081905550600660009054906101000a900460ff161561133f57600a60009054906101000a900473ffffffffffffffffffffffffffffffffffffffff1673ffffffffffffffffffffffffffffffffffffffff1663a9059cbb33886040518363ffffffff167c0100000000000000000000000000000000000000000000000000000000028152600401808373ffffffffffffffffffffffffffffffffffffffff1673ffffffffffffffffffffffffffffffffffffffff16815260200182815260200192505050600060405180830381600087803b15801561132257600080fd5b505af1158015611336573d6000803e3d6000fd5b5050505061144b565b600a60009054906101000a900473ffffffffffffffffffffffffffffffffffffffff1673ffffffffffffffffffffffffffffffffffffffff1663a9059cbb33886040518363ffffffff167c0100000000000000000000000000000000000000000000000000000000028152600401808373ffffffffffffffffffffffffffffffffffffffff1673ffffffffffffffffffffffffffffffffffffffff16815260200182815260200192505050602060405180830381600087803b15801561140457600080fd5b505af1158015611418573d6000803e3d6000fd5b505050506040513d602081101561142e57600080fd5b8101908080519060200190929190505050151561144a57600080fd5b5b6001905095945050505050565b600560008373ffffffffffffffffffffffffffffffffffffffff1673ffffffffffffffffffffffffffffffffffffffff16815260200190815260200160002060009054906101000a900460ff16806114f95750600560008473ffffffffffffffffffffffffffffffffffffffff1673ffffffffffffffffffffffffffffffffffffffff16815260200190815260200160002060009054906101000a900460ff165b151561150457600080fd5b600360009054906101000a900473ffffffffffffffffffffffffffffffffffffffff1673ffffffffffffffffffffffffffffffffffffffff163373ffffffffffffffffffffffffffffffffffffffff1614806115ad5750600460009054906101000a900473ffffffffffffffffffffffffffffffffffffffff1673ffffffffffffffffffffffffffffffffffffffff163373ffffffffffffffffffffffffffffffffffffffff16145b15156115b557fe5b61160781600c60008573ffffffffffffffffffffffffffffffffffffffff1673ffffffffffffffffffffffffffffffffffffffff1681526020019081526020016000205461278a90919063ffffffff16565b600c60008473ffffffffffffffffffffffffffffffffffffffff1673ffffffffffffffffffffffffffffffffffffffff1681526020019081526020016000208190555042600b60008473ffffffffffffffffffffffffffffffffffffffff1673ffffffffffffffffffffffffffffffffffffffff168152602001908152602001600020541161169a57610e1042016116db565b600b60008373ffffffffffffffffffffffffffffffffffffffff1673ffffffffffffffffffffffffffffffffffffffff168152602001908152602001600020545b600b60008473ffffffffffffffffffffffffffffffffffffffff1673ffffffffffffffffffffffffffffffffffffffff1681526020019081526020016000208190555061177081600c60008673ffffffffffffffffffffffffffffffffffffffff1673ffffffffffffffffffffffffffffffffffffffff1681526020019081526020016000205461277190919063ffffffff16565b600c60008573ffffffffffffffffffffffffffffffffffffffff1673ffffffffffffffffffffffffffffffffffffffff168152602001908152602001600020819055508173ffffffffffffffffffffffffffffffffffffffff168373ffffffffffffffffffffffffffffffffffffffff167fddf252ad1be2c89b69c2b068fc378daa952ba7f163c4a11628f55a4df523b3ef836040518082815260200191505060405180910390a3505050565b600c6020528060005260406000206000915090505481565b60095481565b600360009054906101000a900473ffffffffffffffffffffffffffffffffffffffff1681565b6000600c60008373ffffffffffffffffffffffffffffffffffffffff1673ffffffffffffffffffffffffffffffffffffffff168152602001908152602001600020549050919050565b6000838383604051808473ffffffffffffffffffffffffffffffffffffffff1673ffffffffffffffffffffffffffffffffffffffff166c010000000000000000000000000281526014018373ffffffffffffffffffffffffffffffffffffffff1673ffffffffffffffffffffffffffffffffffffffff166c010000000000000000000000000281526014018281526020019350505050604051809103902090509392505050565b60056020528060005260406000206000915054906101000a900460ff1681565b60006005600060018760405180807f19457468657265756d205369676e6564204d6573736167653a0a333200000000815250601c0182600019166000191681526020019150506040518091039020878787604051600081526020016040526040518085600019166000191681526020018460ff1660ff1681526020018360001916600019168152602001826000191660001916815260200194505050505060206040516020810390808403906000865af1158015611a33573d6000803e3d6000fd5b5050506020604051035173ffffffffffffffffffffffffffffffffffffffff1673ffffffffffffffffffffffffffffffffffffffff16815260200190815260200160002060009054906101000a900460ff169050949350505050565b600260009054906101000a900473ffffffffffffffffffffffffffffffffffffffff1681565b60088054600181600116156101000203166002900480601f016020809104026020016040519081016040528092919081815260200182805460018160011615610100020316600290048015611b4b5780601f10611b2057610100808354040283529160200191611b4b565b820191906000526020600020905b815481529060010190602001808311611b2e57829003601f168201915b505050505081565b600660009054906101000a900460ff1681565b600080905092915050565b600460009054906101000a900473ffffffffffffffffffffffffffffffffffffffff1681565b600b6020528060005260406000206000915090505481565b6000600260009054906101000a900473ffffffffffffffffffffffffffffffffffffffff1673ffffffffffffffffffffffffffffffffffffffff163373ffffffffffffffffffffffffffffffffffffffff16141515611c0d57600080fd5b600a60009054906101000a900473ffffffffffffffffffffffffffffffffffffffff1673ffffffffffffffffffffffffffffffffffffffff168373ffffffffffffffffffffffffffffffffffffffff1614151515611c6a57600080fd5b60008373ffffffffffffffffffffffffffffffffffffffff166370a08231306040518263ffffffff167c0100000000000000000000000000000000000000000000000000000000028152600401808273ffffffffffffffffffffffffffffffffffffffff1673ffffffffffffffffffffffffffffffffffffffff168152602001915050602060405180830381600087803b158015611d0757600080fd5b505af1158015611d1b573d6000803e3d6000fd5b505050506040513d6020811015611d3157600080fd5b8101908080519060200190929190505050111515611d4e57600080fd5b8115611ee9578273ffffffffffffffffffffffffffffffffffffffff1663a9059cbb338573ffffffffffffffffffffffffffffffffffffffff166370a08231306040518263ffffffff167c0100000000000000000000000000000000000000000000000000000000028152600401808273ffffffffffffffffffffffffffffffffffffffff1673ffffffffffffffffffffffffffffffffffffffff168152602001915050602060405180830381600087803b158015611e0c57600080fd5b505af1158015611e20573d6000803e3d6000fd5b505050506040513d6020811015611e3657600080fd5b81019080805190602001909291905050506040518363ffffffff167c0100000000000000000000000000000000000000000000000000000000028152600401808373ffffffffffffffffffffffffffffffffffffffff1673ffffffffffffffffffffffffffffffffffffffff16815260200182815260200192505050600060405180830381600087803b158015611ecc57600080fd5b505af1158015611ee0573d6000803e3d6000fd5b505050506120a8565b8273ffffffffffffffffffffffffffffffffffffffff1663a9059cbb338573ffffffffffffffffffffffffffffffffffffffff166370a08231306040518263ffffffff167c0100000000000000000000000000000000000000000000000000000000028152600401808273ffffffffffffffffffffffffffffffffffffffff1673ffffffffffffffffffffffffffffffffffffffff168152602001915050602060405180830381600087803b158015611fa157600080fd5b505af1158015611fb5573d6000803e3d6000fd5b505050506040513d6020811015611fcb57600080fd5b81019080805190602001909291905050506040518363ffffffff167c0100000000000000000000000000000000000000000000000000000000028152600401808373ffffffffffffffffffffffffffffffffffffffff1673ffffffffffffffffffffffffffffffffffffffff16815260200182815260200192505050602060405180830381600087803b15801561206157600080fd5b505af1158015612075573d6000803e3d6000fd5b505050506040513d602081101561208b57600080fd5b810190808051906020019092919050505015156120a757600080fd5b5b6001905092915050565b6000600360009054906101000a900473ffffffffffffffffffffffffffffffffffffffff1673ffffffffffffffffffffffffffffffffffffffff168273ffffffffffffffffffffffffffffffffffffffff16148061215d5750600460009054906101000a900473ffffffffffffffffffffffffffffffffffffffff1673ffffffffffffffffffffffffffffffffffffffff168273ffffffffffffffffffffffffffffffffffffffff16145b1561218a577fffffffffffffffffffffffffffffffffffffffffffffffffffffffffffffffff905061218b565b5b92915050565b6000600182101515156121a357600080fd5b600b60003373ffffffffffffffffffffffffffffffffffffffff1673ffffffffffffffffffffffffffffffffffffffff16815260200190815260200160002054610e1083024201101515156121f757600080fd5b600660009054906101000a900460ff161561232257600a60009054906101000a900473ffffffffffffffffffffffffffffffffffffffff1673ffffffffffffffffffffffffffffffffffffffff166323b872dd3330866040518463ffffffff167c0100000000000000000000000000000000000000000000000000000000028152600401808473ffffffffffffffffffffffffffffffffffffffff1673ffffffffffffffffffffffffffffffffffffffff1681526020018373ffffffffffffffffffffffffffffffffffffffff1673ffffffffffffffffffffffffffffffffffffffff1681526020018281526020019350505050600060405180830381600087803b15801561230557600080fd5b505af1158015612319573d6000803e3d6000fd5b50505050612462565b600a60009054906101000a900473ffffffffffffffffffffffffffffffffffffffff1673ffffffffffffffffffffffffffffffffffffffff166323b872dd3330866040518463ffffffff167c0100000000000000000000000000000000000000000000000000000000028152600401808473ffffffffffffffffffffffffffffffffffffffff1673ffffffffffffffffffffffffffffffffffffffff1681526020018373ffffffffffffffffffffffffffffffffffffffff1673ffffffffffffffffffffffffffffffffffffffff1681526020018281526020019350505050602060405180830381600087803b15801561241b57600080fd5b505af115801561242f573d6000803e3d6000fd5b505050506040513d602081101561244557600080fd5b8101908080519060200190929190505050151561246157600080fd5b5b6124b483600c60003373ffffffffffffffffffffffffffffffffffffffff1673ffffffffffffffffffffffffffffffffffffffff1681526020019081526020016000205461278a90919063ffffffff16565b600c60003373ffffffffffffffffffffffffffffffffffffffff1673ffffffffffffffffffffffffffffffffffffffff1681526020019081526020016000208190555061250c8360015461278a90919063ffffffff16565b600181905550610e1082024201600b60003373ffffffffffffffffffffffffffffffffffffffff1673ffffffffffffffffffffffffffffffffffffffff168152602001908152602001600020819055506001905092915050565b600560003373ffffffffffffffffffffffffffffffffffffffff1673ffffffffffffffffffffffffffffffffffffffff16815260200190815260200160002060009054906101000a900460ff1615156125be57600080fd5b6001600560008373ffffffffffffffffffffffffffffffffffffffff1673ffffffffffffffffffffffffffffffffffffffff16815260200190815260200160002060006101000a81548160ff02191690831515021790555050565b600260009054906101000a900473ffffffffffffffffffffffffffffffffffffffff1673ffffffffffffffffffffffffffffffffffffffff163373ffffffffffffffffffffffffffffffffffffffff1614151561267557600080fd5b600073ffffffffffffffffffffffffffffffffffffffff168173ffffffffffffffffffffffffffffffffffffffff16141515156126b157600080fd5b8073ffffffffffffffffffffffffffffffffffffffff16600260009054906101000a900473ffffffffffffffffffffffffffffffffffffffff1673ffffffffffffffffffffffffffffffffffffffff167f8be0079c531659141344cd1fd0a4f28419497f9722a3daafe3b4186f6b6457e060405160405180910390a380600260006101000a81548173ffffffffffffffffffffffffffffffffffffffff021916908373ffffffffffffffffffffffffffffffffffffffff16021790555050565b600082821115151561277f57fe5b818303905092915050565b600080828401905083811015151561279e57fe5b80915050929150505600a165627a7a723058203dc60960632ead0f08a1b0f650f32ed10948a6b1ab250bdcef7a262f561ab7340029",
  "source": "pragma solidity 0.4.24;\n\nimport \"./zeppelin/token/BasicToken.sol\";\nimport \"./zeppelin/token/ERC20.sol\";\nimport \"./zeppelin/token/ERC20Old.sol\";\nimport \"./zeppelin/math/SafeMath.sol\";\nimport \"./zeppelin/ownership/Ownable.sol\";\n\n/*\n\n  Copyright Ethfinex Inc 2018\n\n  Licensed under the Apache License, Version 2.0\n  http://www.apache.org/licenses/LICENSE-2.0\n\n*/\n\n\ncontract WrapperLock is BasicToken, Ownable {\n    using SafeMath for uint256;\n\n    address public TRANSFER_PROXY_VEFX = 0xdcDb42C9a256690bd153A7B409751ADFC8Dd5851;\n    address public TRANSFER_PROXY_V2 = 0x2240Dab907db71e64d3E0dbA4800c83B5C502d4E;\n    mapping (address => bool) public isSigner;\n\n    bool public erc20old;\n    string public name;\n    string public symbol;\n    uint public decimals;\n    address public originalToken;\n\n    mapping (address => uint256) public depositLock;\n    mapping (address => uint256) public balances;\n\n    function WrapperLock(address _originalToken, string _name, string _symbol, uint _decimals, address _proxyAddress, bool _erc20old) Ownable() {\n        originalToken = _originalToken;\n        name = _name;\n        symbol = _symbol;\n        decimals = _decimals;\n        isSigner[msg.sender] = true;\n        erc20old = _erc20old;\n        TRANSFER_PROXY_V2 = _proxyAddress;\n    }\n\n    function deposit(uint _value, uint _forTime) public returns (bool success) {\n        require(_forTime >= 1);\n        require(now + _forTime * 1 hours >= depositLock[msg.sender]);\n        if (erc20old) {\n            ERC20Old(originalToken).transferFrom(msg.sender, address(this), _value);\n        } else {\n            require(ERC20(originalToken).transferFrom(msg.sender, address(this), _value));\n        }\n        balances[msg.sender] = balances[msg.sender].add(_value);\n        totalSupply_ = totalSupply_.add(_value);\n        depositLock[msg.sender] = now + _forTime * 1 hours;\n        return true;\n    }\n\n    function withdraw(\n        uint _value,\n        uint8 v,\n        bytes32 r,\n        bytes32 s,\n        uint signatureValidUntilBlock\n    )\n        public\n        returns\n        (bool success)\n    {\n        require(balanceOf(msg.sender) >= _value);\n        if (now <= depositLock[msg.sender]) {\n            require(block.number < signatureValidUntilBlock);\n            require(isValidSignature(keccak256(msg.sender, address(this), signatureValidUntilBlock), v, r, s));\n        }\n        balances[msg.sender] = balances[msg.sender].sub(_value);\n        totalSupply_ = totalSupply_.sub(_value);\n        depositLock[msg.sender] = 0;\n        if (erc20old) {\n            ERC20Old(originalToken).transfer(msg.sender, _value);\n        } else {\n            require(ERC20(originalToken).transfer(msg.sender, _value));\n        }\n        return true;\n    }\n\n    function withdrawBalanceDifference() public onlyOwner returns (bool success) {\n        require(ERC20(originalToken).balanceOf(address(this)).sub(totalSupply_) > 0);\n        if (erc20old) {\n            ERC20Old(originalToken).transfer(msg.sender, ERC20(originalToken).balanceOf(address(this)).sub(totalSupply_));\n        } else {\n            require(ERC20(originalToken).transfer(msg.sender, ERC20(originalToken).balanceOf(address(this)).sub(totalSupply_)));\n        }\n        return true;\n    }\n\n    function withdrawDifferentToken(address _differentToken, bool _erc20old) public onlyOwner returns (bool) {\n        require(_differentToken != originalToken);\n        require(ERC20(_differentToken).balanceOf(address(this)) > 0);\n        if (_erc20old) {\n            ERC20Old(_differentToken).transfer(msg.sender, ERC20(_differentToken).balanceOf(address(this)));\n        } else {\n            require(ERC20(_differentToken).transfer(msg.sender, ERC20(_differentToken).balanceOf(address(this))));\n        }\n        return true;\n    }\n\n    function transfer(address _to, uint256 _value) public returns (bool) {\n        return false;\n    }\n\n    function transferFrom(address _from, address _to, uint _value) public {\n        require(isSigner[_to] || isSigner[_from]);\n        assert(msg.sender == TRANSFER_PROXY_VEFX || msg.sender == TRANSFER_PROXY_V2);\n        balances[_to] = balances[_to].add(_value);\n        depositLock[_to] = depositLock[_to] > now ? depositLock[_to] : now + 1 hours;\n        balances[_from] = balances[_from].sub(_value);\n        Transfer(_from, _to, _value);\n    }\n\n    function allowance(address _owner, address _spender) public constant returns (uint) {\n        if (_spender == TRANSFER_PROXY_VEFX || _spender == TRANSFER_PROXY_V2) {\n            return 2**256 - 1;\n        }\n    }\n\n    function balanceOf(address _owner) public constant returns (uint256) {\n        return balances[_owner];\n    }\n\n    function isValidSignature(\n        bytes32 hash,\n        uint8 v,\n        bytes32 r,\n        bytes32 s\n    )\n        public\n        constant\n        returns (bool)\n    {\n        return isSigner[ecrecover(\n            keccak256(\"\\x19Ethereum Signed Message:\\n32\", hash),\n            v,\n            r,\n            s\n        )];\n    }\n\n    function addSigner(address _newSigner) public {\n        require(isSigner[msg.sender]);\n        isSigner[_newSigner] = true;\n    }\n\n    function keccak(address _sender, address _wrapper, uint _validTill) public constant returns(bytes32) {\n        return keccak256(_sender, _wrapper, _validTill);\n    }\n\n}\n",
  "sourcePath": "/Users/h/git/efx/efx-api-node-with-contracts/contracts/Tokens/WrapperLock.sol",
  "compiler": {
    "name": "solc",
    "version": "0.4.24+commit.e67f0147.Emscripten.clang"
  },
  "schemaVersion": "3.0.2",
  "updatedAt": "2019-02-27T19:38:17.844Z",
  "devdoc": {
    "methods": {
      "totalSupply()": {
        "details": "total number of tokens in existence"
      },
      "transferOwnership(address)": {
        "details": "Allows the current owner to transfer control of the contract to a newOwner.",
        "params": {
          "newOwner": "The address to transfer ownership to."
        }
      }
    }
  },
  "userdoc": {
    "methods": {}
  }
}