{
  "contractName": "WrapperLockEth",
  "abi": [
    {
      "constant": true,
      "inputs": [],
      "name": "name",
      "outputs": [
        {
          "name": "",
          "type": "string"
        }
      ],
      "payable": false,
      "stateMutability": "view",
      "type": "function"
    },
    {
      "constant": true,
      "inputs": [],
      "name": "originalToken",
      "outputs": [
        {
          "name": "",
          "type": "address"
        }
      ],
      "payable": false,
      "stateMutability": "view",
      "type": "function"
    },
    {
      "constant": true,
      "inputs": [],
      "name": "totalSupply",
      "outputs": [
        {
          "name": "",
          "type": "uint256"
        }
      ],
      "payable": false,
      "stateMutability": "view",
      "type": "function"
    },
    {
      "constant": true,
      "inputs": [
        {
          "name": "",
          "type": "address"
        }
      ],
      "name": "balances",
      "outputs": [
        {
          "name": "",
          "type": "uint256"
        }
      ],
      "payable": false,
      "stateMutability": "view",
      "type": "function"
    },
    {
      "constant": true,
      "inputs": [],
      "name": "decimals",
      "outputs": [
        {
          "name": "",
          "type": "uint256"
        }
      ],
      "payable": false,
      "stateMutability": "view",
      "type": "function"
    },
    {
      "constant": true,
      "inputs": [],
      "name": "TRANSFER_PROXY_VEFX",
      "outputs": [
        {
          "name": "",
          "type": "address"
        }
      ],
      "payable": false,
      "stateMutability": "view",
      "type": "function"
    },
    {
      "constant": true,
      "inputs": [
        {
          "name": "",
          "type": "address"
        }
      ],
      "name": "isSigner",
      "outputs": [
        {
          "name": "",
          "type": "bool"
        }
      ],
      "payable": false,
      "stateMutability": "view",
      "type": "function"
    },
    {
      "constant": true,
      "inputs": [],
      "name": "owner",
      "outputs": [
        {
          "name": "",
          "type": "address"
        }
      ],
      "payable": false,
      "stateMutability": "view",
      "type": "function"
    },
    {
      "constant": true,
      "inputs": [],
      "name": "symbol",
      "outputs": [
        {
          "name": "",
          "type": "string"
        }
      ],
      "payable": false,
      "stateMutability": "view",
      "type": "function"
    },
    {
      "constant": true,
      "inputs": [],
      "name": "TRANSFER_PROXY_V2",
      "outputs": [
        {
          "name": "",
          "type": "address"
        }
      ],
      "payable": false,
      "stateMutability": "view",
      "type": "function"
    },
    {
      "constant": true,
      "inputs": [
        {
          "name": "",
          "type": "address"
        }
      ],
      "name": "depositLock",
      "outputs": [
        {
          "name": "",
          "type": "uint256"
        }
      ],
      "payable": false,
      "stateMutability": "view",
      "type": "function"
    },
    {
      "constant": false,
      "inputs": [
        {
          "name": "newOwner",
          "type": "address"
        }
      ],
      "name": "transferOwnership",
      "outputs": [],
      "payable": false,
      "stateMutability": "nonpayable",
      "type": "function"
    },
    {
      "inputs": [
        {
          "name": "_name",
          "type": "string"
        },
        {
          "name": "_symbol",
          "type": "string"
        },
        {
          "name": "_decimals",
          "type": "uint256"
        },
        {
          "name": "_proxyAddress",
          "type": "address"
        }
      ],
      "payable": false,
      "stateMutability": "nonpayable",
      "type": "constructor"
    },
    {
      "anonymous": false,
      "inputs": [
        {
          "indexed": true,
          "name": "previousOwner",
          "type": "address"
        },
        {
          "indexed": true,
          "name": "newOwner",
          "type": "address"
        }
      ],
      "name": "OwnershipTransferred",
      "type": "event"
    },
    {
      "anonymous": false,
      "inputs": [
        {
          "indexed": true,
          "name": "from",
          "type": "address"
        },
        {
          "indexed": true,
          "name": "to",
          "type": "address"
        },
        {
          "indexed": false,
          "name": "value",
          "type": "uint256"
        }
      ],
      "name": "Transfer",
      "type": "event"
    },
    {
      "constant": false,
      "inputs": [
        {
          "name": "_value",
          "type": "uint256"
        },
        {
          "name": "_forTime",
          "type": "uint256"
        }
      ],
      "name": "deposit",
      "outputs": [
        {
          "name": "success",
          "type": "bool"
        }
      ],
      "payable": true,
      "stateMutability": "payable",
      "type": "function"
    },
    {
      "constant": false,
      "inputs": [
        {
          "name": "_value",
          "type": "uint256"
        },
        {
          "name": "v",
          "type": "uint8"
        },
        {
          "name": "r",
          "type": "bytes32"
        },
        {
          "name": "s",
          "type": "bytes32"
        },
        {
          "name": "signatureValidUntilBlock",
          "type": "uint256"
        }
      ],
      "name": "withdraw",
      "outputs": [
        {
          "name": "",
          "type": "bool"
        }
      ],
      "payable": false,
      "stateMutability": "nonpayable",
      "type": "function"
    },
    {
      "constant": false,
      "inputs": [
        {
          "name": "_token",
          "type": "address"
        },
        {
          "name": "_erc20old",
          "type": "bool"
        }
      ],
      "name": "withdrawDifferentToken",
      "outputs": [
        {
          "name": "",
          "type": "bool"
        }
      ],
      "payable": false,
      "stateMutability": "nonpayable",
      "type": "function"
    },
    {
      "constant": false,
      "inputs": [
        {
          "name": "_to",
          "type": "address"
        },
        {
          "name": "_value",
          "type": "uint256"
        }
      ],
      "name": "transfer",
      "outputs": [
        {
          "name": "",
          "type": "bool"
        }
      ],
      "payable": false,
      "stateMutability": "nonpayable",
      "type": "function"
    },
    {
      "constant": false,
      "inputs": [
        {
          "name": "_from",
          "type": "address"
        },
        {
          "name": "_to",
          "type": "address"
        },
        {
          "name": "_value",
          "type": "uint256"
        }
      ],
      "name": "transferFrom",
      "outputs": [],
      "payable": false,
      "stateMutability": "nonpayable",
      "type": "function"
    },
    {
      "constant": true,
      "inputs": [
        {
          "name": "_owner",
          "type": "address"
        },
        {
          "name": "_spender",
          "type": "address"
        }
      ],
      "name": "allowance",
      "outputs": [
        {
          "name": "",
          "type": "uint256"
        }
      ],
      "payable": false,
      "stateMutability": "view",
      "type": "function"
    },
    {
      "constant": true,
      "inputs": [
        {
          "name": "_owner",
          "type": "address"
        }
      ],
      "name": "balanceOf",
      "outputs": [
        {
          "name": "",
          "type": "uint256"
        }
      ],
      "payable": false,
      "stateMutability": "view",
      "type": "function"
    },
    {
      "constant": true,
      "inputs": [
        {
          "name": "hash",
          "type": "bytes32"
        },
        {
          "name": "v",
          "type": "uint8"
        },
        {
          "name": "r",
          "type": "bytes32"
        },
        {
          "name": "s",
          "type": "bytes32"
        }
      ],
      "name": "isValidSignature",
      "outputs": [
        {
          "name": "",
          "type": "bool"
        }
      ],
      "payable": false,
      "stateMutability": "view",
      "type": "function"
    },
    {
      "constant": false,
      "inputs": [
        {
          "name": "_newSigner",
          "type": "address"
        }
      ],
      "name": "addSigner",
      "outputs": [],
      "payable": false,
      "stateMutability": "nonpayable",
      "type": "function"
    },
    {
      "constant": true,
      "inputs": [
        {
          "name": "_sender",
          "type": "address"
        },
        {
          "name": "_wrapper",
          "type": "address"
        },
        {
          "name": "_validTill",
          "type": "uint256"
        }
      ],
      "name": "keccak",
      "outputs": [
        {
          "name": "",
          "type": "bytes32"
        }
      ],
      "payable": false,
      "stateMutability": "view",
      "type": "function"
    }
  ],
  "bytecode": "0x608060405273dcdb42c9a256690bd153a7b409751adfc8dd5851600360006101000a81548173ffffffffffffffffffffffffffffffffffffffff021916908373ffffffffffffffffffffffffffffffffffffffff160217905550732240dab907db71e64d3e0dba4800c83b5c502d4e600460006101000a81548173ffffffffffffffffffffffffffffffffffffffff021916908373ffffffffffffffffffffffffffffffffffffffff1602179055506000600960006101000a81548173ffffffffffffffffffffffffffffffffffffffff021916908373ffffffffffffffffffffffffffffffffffffffff160217905550348015620000fd57600080fd5b5060405162002134380380620021348339810180604052810190808051820192919060200180518201929190602001805190602001909291908051906020019092919050505033600260006101000a81548173ffffffffffffffffffffffffffffffffffffffff021916908373ffffffffffffffffffffffffffffffffffffffff16021790555083600690805190602001906200019c92919062000260565b508260079080519060200190620001b592919062000260565b50816008819055506001600560003373ffffffffffffffffffffffffffffffffffffffff1673ffffffffffffffffffffffffffffffffffffffff16815260200190815260200160002060006101000a81548160ff02191690831515021790555080600460006101000a81548173ffffffffffffffffffffffffffffffffffffffff021916908373ffffffffffffffffffffffffffffffffffffffff160217905550505050506200030f565b828054600181600116156101000203166002900490600052602060002090601f016020900481019282601f10620002a357805160ff1916838001178555620002d4565b82800160010185558215620002d4579182015b82811115620002d3578251825591602001919060010190620002b6565b5b509050620002e39190620002e7565b5090565b6200030c91905b8082111562000308576000816000905550600101620002ee565b5090565b90565b611e15806200031f6000396000f300608060405260043610610128576000357c0100000000000000000000000000000000000000000000000000000000900463ffffffff16806306fdde031461012d5780630e7c1cb5146101bd57806318160ddd146102145780631d6f757d1461023f57806323b872dd146102b757806327e235e314610324578063313ce5671461037b57806345164b3e146103a657806370a08231146103fd57806374f1d6ce146104545780637df73e27146104dd5780638b257d3d146105385780638da5cb5b146105aa57806395d89b4114610601578063a9059cbb14610691578063ad93640f146106f6578063cc8910231461074d578063d9ee369a146107a4578063dd62ed3e1461080b578063e2bbb15814610882578063eb12d61e146108c4578063f2fde38b14610907575b600080fd5b34801561013957600080fd5b5061014261094a565b6040518080602001828103825283818151815260200191508051906020019080838360005b83811015610182578082015181840152602081019050610167565b50505050905090810190601f1680156101af5780820380516001836020036101000a031916815260200191505b509250505060405180910390f35b3480156101c957600080fd5b506101d26109e8565b604051808273ffffffffffffffffffffffffffffffffffffffff1673ffffffffffffffffffffffffffffffffffffffff16815260200191505060405180910390f35b34801561022057600080fd5b50610229610a0e565b6040518082815260200191505060405180910390f35b34801561024b57600080fd5b5061029d60048036038101908080359060200190929190803560ff1690602001909291908035600019169060200190929190803560001916906020019092919080359060200190929190505050610a18565b604051808215151515815260200191505060405180910390f35b3480156102c357600080fd5b50610322600480360381019080803573ffffffffffffffffffffffffffffffffffffffff169060200190929190803573ffffffffffffffffffffffffffffffffffffffff16906020019092919080359060200190929190505050610d7e565b005b34801561033057600080fd5b50610365600480360381019080803573ffffffffffffffffffffffffffffffffffffffff169060200190929190505050611143565b6040518082815260200191505060405180910390f35b34801561038757600080fd5b5061039061115b565b6040518082815260200191505060405180910390f35b3480156103b257600080fd5b506103bb611161565b604051808273ffffffffffffffffffffffffffffffffffffffff1673ffffffffffffffffffffffffffffffffffffffff16815260200191505060405180910390f35b34801561040957600080fd5b5061043e600480360381019080803573ffffffffffffffffffffffffffffffffffffffff169060200190929190505050611187565b6040518082815260200191505060405180910390f35b34801561046057600080fd5b506104bf600480360381019080803573ffffffffffffffffffffffffffffffffffffffff169060200190929190803573ffffffffffffffffffffffffffffffffffffffff169060200190929190803590602001909291905050506111d0565b60405180826000191660001916815260200191505060405180910390f35b3480156104e957600080fd5b5061051e600480360381019080803573ffffffffffffffffffffffffffffffffffffffff169060200190929190505050611277565b604051808215151515815260200191505060405180910390f35b34801561054457600080fd5b506105906004803603810190808035600019169060200190929190803560ff16906020019092919080356000191690602001909291908035600019169060200190929190505050611297565b604051808215151515815260200191505060405180910390f35b3480156105b657600080fd5b506105bf6113b5565b604051808273ffffffffffffffffffffffffffffffffffffffff1673ffffffffffffffffffffffffffffffffffffffff16815260200191505060405180910390f35b34801561060d57600080fd5b506106166113db565b6040518080602001828103825283818151815260200191508051906020019080838360005b8381101561065657808201518184015260208101905061063b565b50505050905090810190601f1680156106835780820380516001836020036101000a031916815260200191505b509250505060405180910390f35b34801561069d57600080fd5b506106dc600480360381019080803573ffffffffffffffffffffffffffffffffffffffff16906020019092919080359060200190929190505050611479565b604051808215151515815260200191505060405180910390f35b34801561070257600080fd5b5061070b611484565b604051808273ffffffffffffffffffffffffffffffffffffffff1673ffffffffffffffffffffffffffffffffffffffff16815260200191505060405180910390f35b34801561075957600080fd5b5061078e600480360381019080803573ffffffffffffffffffffffffffffffffffffffff1690602001909291905050506114aa565b6040518082815260200191505060405180910390f35b3480156107b057600080fd5b506107f1600480360381019080803573ffffffffffffffffffffffffffffffffffffffff1690602001909291908035151590602001909291905050506114c2565b604051808215151515815260200191505060405180910390f35b34801561081757600080fd5b5061086c600480360381019080803573ffffffffffffffffffffffffffffffffffffffff169060200190929190803573ffffffffffffffffffffffffffffffffffffffff16906020019092919050505061195e565b6040518082815260200191505060405180910390f35b6108aa6004803603810190808035906020019092919080359060200190929190505050611a3d565b604051808215151515815260200191505060405180910390f35b3480156108d057600080fd5b50610905600480360381019080803573ffffffffffffffffffffffffffffffffffffffff169060200190929190505050611ba7565b005b34801561091357600080fd5b50610948600480360381019080803573ffffffffffffffffffffffffffffffffffffffff169060200190929190505050611c5a565b005b60068054600181600116156101000203166002900480601f0160208091040260200160405190810160405280929190818152602001828054600181600116156101000203166002900480156109e05780601f106109b5576101008083540402835291602001916109e0565b820191906000526020600020905b8154815290600101906020018083116109c357829003601f168201915b505050505081565b600960009054906101000a900473ffffffffffffffffffffffffffffffffffffffff1681565b6000600154905090565b600085610a2433611187565b10151515610a3157600080fd5b600a60003373ffffffffffffffffffffffffffffffffffffffff1673ffffffffffffffffffffffffffffffffffffffff16815260200190815260200160002054421115610b7457610aca86600b60003373ffffffffffffffffffffffffffffffffffffffff1673ffffffffffffffffffffffffffffffffffffffff16815260200190815260200160002054611db290919063ffffffff16565b600b60003373ffffffffffffffffffffffffffffffffffffffff1673ffffffffffffffffffffffffffffffffffffffff16815260200190815260200160002081905550610b2286600154611db290919063ffffffff16565b6001819055503373ffffffffffffffffffffffffffffffffffffffff166108fc879081150290604051600060405180830381858888f19350505050158015610b6e573d6000803e3d6000fd5b50610d71565b8143101515610b8257600080fd5b610c29333084604051808473ffffffffffffffffffffffffffffffffffffffff1673ffffffffffffffffffffffffffffffffffffffff166c010000000000000000000000000281526014018373ffffffffffffffffffffffffffffffffffffffff1673ffffffffffffffffffffffffffffffffffffffff166c0100000000000000000000000002815260140182815260200193505050506040518091039020868686611297565b1515610c3457600080fd5b610c8686600b60003373ffffffffffffffffffffffffffffffffffffffff1673ffffffffffffffffffffffffffffffffffffffff16815260200190815260200160002054611db290919063ffffffff16565b600b60003373ffffffffffffffffffffffffffffffffffffffff1673ffffffffffffffffffffffffffffffffffffffff16815260200190815260200160002081905550610cde86600154611db290919063ffffffff16565b6001819055506000600a60003373ffffffffffffffffffffffffffffffffffffffff1673ffffffffffffffffffffffffffffffffffffffff168152602001908152602001600020819055503373ffffffffffffffffffffffffffffffffffffffff166108fc879081150290604051600060405180830381858888f19350505050158015610d6f573d6000803e3d6000fd5b505b6001905095945050505050565b600560008373ffffffffffffffffffffffffffffffffffffffff1673ffffffffffffffffffffffffffffffffffffffff16815260200190815260200160002060009054906101000a900460ff1680610e1f5750600560008473ffffffffffffffffffffffffffffffffffffffff1673ffffffffffffffffffffffffffffffffffffffff16815260200190815260200160002060009054906101000a900460ff165b1515610e2a57600080fd5b600360009054906101000a900473ffffffffffffffffffffffffffffffffffffffff1673ffffffffffffffffffffffffffffffffffffffff163373ffffffffffffffffffffffffffffffffffffffff161480610ed35750600460009054906101000a900473ffffffffffffffffffffffffffffffffffffffff1673ffffffffffffffffffffffffffffffffffffffff163373ffffffffffffffffffffffffffffffffffffffff16145b1515610edb57fe5b610f2d81600b60008573ffffffffffffffffffffffffffffffffffffffff1673ffffffffffffffffffffffffffffffffffffffff16815260200190815260200160002054611dcb90919063ffffffff16565b600b60008473ffffffffffffffffffffffffffffffffffffffff1673ffffffffffffffffffffffffffffffffffffffff1681526020019081526020016000208190555042600a60008473ffffffffffffffffffffffffffffffffffffffff1673ffffffffffffffffffffffffffffffffffffffff1681526020019081526020016000205411610fc057610e104201611001565b600a60008373ffffffffffffffffffffffffffffffffffffffff1673ffffffffffffffffffffffffffffffffffffffff168152602001908152602001600020545b600a60008473ffffffffffffffffffffffffffffffffffffffff1673ffffffffffffffffffffffffffffffffffffffff1681526020019081526020016000208190555061109681600b60008673ffffffffffffffffffffffffffffffffffffffff1673ffffffffffffffffffffffffffffffffffffffff16815260200190815260200160002054611db290919063ffffffff16565b600b60008573ffffffffffffffffffffffffffffffffffffffff1673ffffffffffffffffffffffffffffffffffffffff168152602001908152602001600020819055508173ffffffffffffffffffffffffffffffffffffffff168373ffffffffffffffffffffffffffffffffffffffff167fddf252ad1be2c89b69c2b068fc378daa952ba7f163c4a11628f55a4df523b3ef836040518082815260200191505060405180910390a3505050565b600b6020528060005260406000206000915090505481565b60085481565b600360009054906101000a900473ffffffffffffffffffffffffffffffffffffffff1681565b6000600b60008373ffffffffffffffffffffffffffffffffffffffff1673ffffffffffffffffffffffffffffffffffffffff168152602001908152602001600020549050919050565b6000838383604051808473ffffffffffffffffffffffffffffffffffffffff1673ffffffffffffffffffffffffffffffffffffffff166c010000000000000000000000000281526014018373ffffffffffffffffffffffffffffffffffffffff1673ffffffffffffffffffffffffffffffffffffffff166c010000000000000000000000000281526014018281526020019350505050604051809103902090509392505050565b60056020528060005260406000206000915054906101000a900460ff1681565b60006005600060018760405180807f19457468657265756d205369676e6564204d6573736167653a0a333200000000815250601c0182600019166000191681526020019150506040518091039020878787604051600081526020016040526040518085600019166000191681526020018460ff1660ff1681526020018360001916600019168152602001826000191660001916815260200194505050505060206040516020810390808403906000865af1158015611359573d6000803e3d6000fd5b5050506020604051035173ffffffffffffffffffffffffffffffffffffffff1673ffffffffffffffffffffffffffffffffffffffff16815260200190815260200160002060009054906101000a900460ff169050949350505050565b600260009054906101000a900473ffffffffffffffffffffffffffffffffffffffff1681565b60078054600181600116156101000203166002900480601f0160208091040260200160405190810160405280929190818152602001828054600181600116156101000203166002900480156114715780601f1061144657610100808354040283529160200191611471565b820191906000526020600020905b81548152906001019060200180831161145457829003601f168201915b505050505081565b600080905092915050565b600460009054906101000a900473ffffffffffffffffffffffffffffffffffffffff1681565b600a6020528060005260406000206000915090505481565b6000600260009054906101000a900473ffffffffffffffffffffffffffffffffffffffff1673ffffffffffffffffffffffffffffffffffffffff163373ffffffffffffffffffffffffffffffffffffffff1614151561152057600080fd5b60008373ffffffffffffffffffffffffffffffffffffffff166370a08231306040518263ffffffff167c0100000000000000000000000000000000000000000000000000000000028152600401808273ffffffffffffffffffffffffffffffffffffffff1673ffffffffffffffffffffffffffffffffffffffff168152602001915050602060405180830381600087803b1580156115bd57600080fd5b505af11580156115d1573d6000803e3d6000fd5b505050506040513d60208110156115e757600080fd5b810190808051906020019092919050505011151561160457600080fd5b811561179f578273ffffffffffffffffffffffffffffffffffffffff1663a9059cbb338573ffffffffffffffffffffffffffffffffffffffff166370a08231306040518263ffffffff167c0100000000000000000000000000000000000000000000000000000000028152600401808273ffffffffffffffffffffffffffffffffffffffff1673ffffffffffffffffffffffffffffffffffffffff168152602001915050602060405180830381600087803b1580156116c257600080fd5b505af11580156116d6573d6000803e3d6000fd5b505050506040513d60208110156116ec57600080fd5b81019080805190602001909291905050506040518363ffffffff167c0100000000000000000000000000000000000000000000000000000000028152600401808373ffffffffffffffffffffffffffffffffffffffff1673ffffffffffffffffffffffffffffffffffffffff16815260200182815260200192505050600060405180830381600087803b15801561178257600080fd5b505af1158015611796573d6000803e3d6000fd5b50505050611954565b8273ffffffffffffffffffffffffffffffffffffffff1663a9059cbb338573ffffffffffffffffffffffffffffffffffffffff166370a08231306040518263ffffffff167c0100000000000000000000000000000000000000000000000000000000028152600401808273ffffffffffffffffffffffffffffffffffffffff1673ffffffffffffffffffffffffffffffffffffffff168152602001915050602060405180830381600087803b15801561185757600080fd5b505af115801561186b573d6000803e3d6000fd5b505050506040513d602081101561188157600080fd5b81019080805190602001909291905050506040518363ffffffff167c0100000000000000000000000000000000000000000000000000000000028152600401808373ffffffffffffffffffffffffffffffffffffffff1673ffffffffffffffffffffffffffffffffffffffff16815260200182815260200192505050602060405180830381600087803b15801561191757600080fd5b505af115801561192b573d6000803e3d6000fd5b505050506040513d602081101561194157600080fd5b8101908080519060200190929190505050505b6001905092915050565b6000600360009054906101000a900473ffffffffffffffffffffffffffffffffffffffff1673ffffffffffffffffffffffffffffffffffffffff168273ffffffffffffffffffffffffffffffffffffffff161480611a095750600460009054906101000a900473ffffffffffffffffffffffffffffffffffffffff1673ffffffffffffffffffffffffffffffffffffffff168273ffffffffffffffffffffffffffffffffffffffff16145b15611a36577fffffffffffffffffffffffffffffffffffffffffffffffffffffffffffffffff9050611a37565b5b92915050565b600060018210151515611a4f57600080fd5b600a60003373ffffffffffffffffffffffffffffffffffffffff1673ffffffffffffffffffffffffffffffffffffffff16815260200190815260200160002054610e108302420110151515611aa357600080fd5b611af534600b60003373ffffffffffffffffffffffffffffffffffffffff1673ffffffffffffffffffffffffffffffffffffffff16815260200190815260200160002054611dcb90919063ffffffff16565b600b60003373ffffffffffffffffffffffffffffffffffffffff1673ffffffffffffffffffffffffffffffffffffffff16815260200190815260200160002081905550611b4d34600154611dcb90919063ffffffff16565b600181905550610e1082024201600a60003373ffffffffffffffffffffffffffffffffffffffff1673ffffffffffffffffffffffffffffffffffffffff168152602001908152602001600020819055506001905092915050565b600560003373ffffffffffffffffffffffffffffffffffffffff1673ffffffffffffffffffffffffffffffffffffffff16815260200190815260200160002060009054906101000a900460ff161515611bff57600080fd5b6001600560008373ffffffffffffffffffffffffffffffffffffffff1673ffffffffffffffffffffffffffffffffffffffff16815260200190815260200160002060006101000a81548160ff02191690831515021790555050565b600260009054906101000a900473ffffffffffffffffffffffffffffffffffffffff1673ffffffffffffffffffffffffffffffffffffffff163373ffffffffffffffffffffffffffffffffffffffff16141515611cb657600080fd5b600073ffffffffffffffffffffffffffffffffffffffff168173ffffffffffffffffffffffffffffffffffffffff1614151515611cf257600080fd5b8073ffffffffffffffffffffffffffffffffffffffff16600260009054906101000a900473ffffffffffffffffffffffffffffffffffffffff1673ffffffffffffffffffffffffffffffffffffffff167f8be0079c531659141344cd1fd0a4f28419497f9722a3daafe3b4186f6b6457e060405160405180910390a380600260006101000a81548173ffffffffffffffffffffffffffffffffffffffff021916908373ffffffffffffffffffffffffffffffffffffffff16021790555050565b6000828211151515611dc057fe5b818303905092915050565b6000808284019050838110151515611ddf57fe5b80915050929150505600a165627a7a723058200685e5fa7cc82c26f9af282809837d287c13af71cce4a68e70d50d69ae998eb30029",
  "source": "pragma solidity 0.4.24;\n\nimport \"./zeppelin/token/BasicToken.sol\";\nimport \"./zeppelin/token/ERC20.sol\";\nimport \"./zeppelin/token/ERC20Old.sol\";\nimport \"./zeppelin/math/SafeMath.sol\";\nimport \"./zeppelin/ownership/Ownable.sol\";\n\n/*\n\n  Copyright Ethfinex Inc 2018\n\n  Licensed under the Apache License, Version 2.0\n  http://www.apache.org/licenses/LICENSE-2.0\n\n*/\n\ncontract WrapperLockEth is BasicToken, Ownable {\n    using SafeMath for uint256;\n\n    address public TRANSFER_PROXY_VEFX = 0xdcDb42C9a256690bd153A7B409751ADFC8Dd5851;\n    address public TRANSFER_PROXY_V2 = 0x2240Dab907db71e64d3E0dbA4800c83B5C502d4E;\n    mapping (address => bool) public isSigner;\n\n    string public name;\n    string public symbol;\n    uint public decimals;\n    address public originalToken = 0x00;\n\n    mapping (address => uint) public depositLock;\n    mapping (address => uint256) public balances;\n\n    function WrapperLockEth(string _name, string _symbol, uint _decimals, address _proxyAddress ) Ownable() {\n        name = _name;\n        symbol = _symbol;\n        decimals = _decimals;\n        isSigner[msg.sender] = true;\n        TRANSFER_PROXY_V2 = _proxyAddress;\n    }\n\n    function deposit(uint _value, uint _forTime) public payable returns (bool success) {\n        require(_forTime >= 1);\n        require(now + _forTime * 1 hours >= depositLock[msg.sender]);\n        balances[msg.sender] = balances[msg.sender].add(msg.value);\n        totalSupply_ = totalSupply_.add(msg.value);\n        depositLock[msg.sender] = now + _forTime * 1 hours;\n        return true;\n    }\n\n    function withdraw(\n        uint _value,\n        uint8 v,\n        bytes32 r,\n        bytes32 s,\n        uint signatureValidUntilBlock\n    )\n        public\n        returns\n        (bool)\n    {\n        require(balanceOf(msg.sender) >= _value);\n        if (now > depositLock[msg.sender]) {\n            balances[msg.sender] = balances[msg.sender].sub(_value);\n            totalSupply_ = totalSupply_.sub(_value);\n            msg.sender.transfer(_value);\n        } else {\n            require(block.number < signatureValidUntilBlock);\n            require(isValidSignature(keccak256(msg.sender, address(this), signatureValidUntilBlock), v, r, s));\n            balances[msg.sender] = balances[msg.sender].sub(_value);\n            totalSupply_ = totalSupply_.sub(_value);\n            depositLock[msg.sender] = 0;\n            msg.sender.transfer(_value);\n        }\n        return true;\n    }\n\n    function withdrawDifferentToken(address _token, bool _erc20old) public onlyOwner returns (bool) {\n        require(ERC20(_token).balanceOf(address(this)) > 0);\n        if (_erc20old) {\n            ERC20Old(_token).transfer(msg.sender, ERC20(_token).balanceOf(address(this)));\n        } else {\n            ERC20(_token).transfer(msg.sender, ERC20(_token).balanceOf(address(this)));\n        }\n        return true;\n    }\n\n    function transfer(address _to, uint256 _value) public returns (bool) {\n        return false;\n    }\n\n    function transferFrom(address _from, address _to, uint _value) public {\n        require(isSigner[_to] || isSigner[_from]);\n        assert(msg.sender == TRANSFER_PROXY_VEFX || msg.sender == TRANSFER_PROXY_V2);\n        balances[_to] = balances[_to].add(_value);\n        depositLock[_to] = depositLock[_to] > now ? depositLock[_to] : now + 1 hours;\n        balances[_from] = balances[_from].sub(_value);\n        Transfer(_from, _to, _value);\n    }\n\n    function allowance(address _owner, address _spender) public constant returns (uint) {\n        if (_spender == TRANSFER_PROXY_VEFX || _spender == TRANSFER_PROXY_V2) {\n            return 2**256 - 1;\n        }\n    }\n\n    function balanceOf(address _owner) public constant returns (uint256) {\n        return balances[_owner];\n    }\n\n    function isValidSignature(\n        bytes32 hash,\n        uint8 v,\n        bytes32 r,\n        bytes32 s)\n        public\n        constant\n        returns (bool)\n    {\n        return isSigner[ecrecover(\n            keccak256(\"\\x19Ethereum Signed Message:\\n32\", hash),\n            v,\n            r,\n            s\n        )];\n    }\n\n    function addSigner(address _newSigner) public {\n        require(isSigner[msg.sender]);\n        isSigner[_newSigner] = true;\n    }\n\n    function keccak(address _sender, address _wrapper, uint _validTill) public constant returns(bytes32) {\n        return keccak256(_sender, _wrapper, _validTill);\n    }\n}\n",
  "sourcePath": "/Users/h/git/efx/efx-api-node-with-contracts/contracts/Tokens/WrapperLockEth.sol",
  "compiler": {
    "name": "solc",
    "version": "0.4.24+commit.e67f0147.Emscripten.clang"
  },
  "schemaVersion": "3.0.2",
  "updatedAt": "2019-02-27T19:38:17.833Z",
  "devdoc": {
    "methods": {
      "totalSupply()": {
        "details": "total number of tokens in existence"
      },
      "transferOwnership(address)": {
        "details": "Allows the current owner to transfer control of the contract to a newOwner.",
        "params": {
          "newOwner": "The address to transfer ownership to."
        }
      }
    }
  },
  "userdoc": {
    "methods": {}
  }
}